:020000040800F2
:10000000F80900209D010008931A000881170008D4
:10001000911A00089F030008E91E00080000000074
:10002000000000000000000000000000971A000817
:100030007504000800000000951A0008991A0008CD
:10004000B7010008B7010008B7010008B7010008B0
:10005000B7010008B7010008B7010008B7010008A0
:10006000B7010008B7010008B7010008B701000890
:10007000B7010008B7010008B7010008B701000880
:10008000A1030008AD030008B7010008B70100088C
:10009000B7010008B7010008B7010008B701000860
:1000A000B7010008B7010008B7010008B701000850
:1000B000B7010008B7010008B7010008B701000840
:1000C000B7010008B7010008B7010008B701000830
:1000D000B70100087D1E0008891E0008B70100084E
:1000E000B7010008B7010008B7010008B701000810
:1000F000B7010008B7010008B7010008B701000800
:10010000B7010008B7010008B7010008B7010008EF
:10011000B7010008B7010008B7010008B7010008DF
:10012000B7010008B7010008B9030008B7010008CB
:10013000B7010008B7010008B7010008B7010008BF
:10014000B7010008B7010008B7010008B7010008AF
:10015000B7010008B7010008C5030008B70100088F
:10016000B7010008B7010008B7010008B70100088F
:10017000B7010008B7010008B7010008000000003F
:10018000B7010008B7010008DFF80CD000F0CAF88A
:1001900000480047B5200008F809002006488047BD
:1001A00006480047FEE7FEE7FEE7FEE7FEE7FEE75C
:1001B000FEE7FEE7FEE7FEE70D1B000889010008E9
:1001C0002DE9F05F0546002092469B46884606468C
:1001D000814640241BE0284641464746224600F01F
:1001E00090F853465A46C01A914110D3114618460A
:1001F000224600F077F82D1A67EB01084F46224699
:100200000120002100F06EF817EB00094E41201E7E
:10021000A4F10104DFDC484631462A464346BDE8E6
:10022000F09F40EA01039B0703D009E008C9121FB1
:1002300008C0042AFAD203E011F8013B00F8013BA0
:10024000521EF9D27047D2B201E000F8012B491ECC
:10025000FBD270470022F6E710B513460A46044663
:100260001946FFF7F0FF204610BD30B505462A4677
:100270000B4612F8010B13F8014B08B1A042F8D05D
:100280001CB1002802D06D1CF1E7284630BD421C8D
:1002900010F8011B0029FBD1801A704710B500220D
:1002A00000E0521C835C8C5CA34201D1002BF8D18E
:1002B000D8B2E1B2401A10BD30B50B46014600205D
:1002C0002022012409E021FA02F59D4205D303FA18
:1002D00002F5491B04FA02F52844151EA2F1010299
:1002E000F1DC30BD202A04DB203A00FA02F10020C4
:1002F00070479140C2F1200320FA03F31943904064
:100300007047202A04DB203A21FA02F000217047CE
:1003100021FA02F3D040C2F120029140084319466D
:1003200070470000064C074D06E0E06840F001030E
:1003300094E8070098471034AC42F6D3FFF728FF43
:10034000442400086424000870B58C1810F8015B80
:1003500015F0070301D110F8013B2A1106D110F85E
:10036000012B03E010F8016B01F8016B5B1EF9D162
:100370002B0705D40023521E0DD401F8013BFAE7E8
:1003800010F8013BCB1A921C03E013F8015B01F853
:10039000015B521EF9D5A142D8D3002070BDFEE703
:1003A000014800F065B9000038050020014800F060
:1003B0005FB9000098050020014800F059B900001D
:1003C00078040020014800F053B90000D804002050
:1003D00001681823CAB2103AB2FBF3F2054B6FF36F
:1003E0000901032A9B5CC36500D9091D8165084684
:1003F00070470000E023000810B5014600208B691B
:100400008A6A4FF0C07453B1B3F5005F15D072B172
:10041000012A0CD0022A0AD0032A09D104E01AB119
:10042000012A06D0022A03D1C96AC90100D50120D8
:1004300010BDC96AA142FAD010BD002AF7D0012A26
:10044000F2D0022AF3D0032AF3D010BD30B50468ED
:10045000256825F480252560046863608368402B47
:10046000036803D099600068C26030BD9A6000687C
:10047000C16030BD704770472DE9F0412C4F804678
:100480004FF0FF3442F21076002500BF05EB8500E7
:1004900007EB00104146FFF701FF28B16D1C072D47
:1004A000F4D32046BDE8F08105EB850007EB00158D
:1004B00010352846FFF7EBFE82B229462746234631
:1004C0001C4801F0FFF808B13846EBE74FF480759F
:1004D00029461948FFF7BEFE2A461749154801F07C
:1004E000A3F8154DDFF8548015A11348FFF7BDFEA2
:1004F00018B10024401B001D0FE012A10E48FFF7A9
:10050000B4FE18B1401B3C46C01D06E0012000F0BF
:1005100021FA98F80000761EE6D282B2142306492A
:100520000A4801F0CFF8034800F05CFEB9E700008C
:100530000800002038040020F802002000000020FD
:100540004F4B00004552524F52000000F80300206C
:1005500070B588B0182215496846FFF762FE144C42
:100560004FF0FF35206870B92B46032211A11248C5
:1005700001F0A8F80A2000F0EDF90A23012206A9EB
:100580000D4800F0F1FF00206E46206056F8200074
:10059000FFF772FF10B1284608B070BD2068401CFC
:1005A00020600628F2D30020F6E70000C8230008E8
:1005B000040000202B2B2B00380400202DE9F041F3
:1005C0000446876D00F0C0FA064694F83500002511
:1005D000022806D08020606584F834500120BDE8F0
:1005E000F0812068016821F01601016020684169EE
:1005F00021F080014161206C08B9A06C20B1206815
:10060000016821F0080101602068016821F0010102
:1006100001600BE000F098FA801B052806D9202025
:10062000606504F8345F03206070D8E720680068D4
:10063000C007EFD194F85C103F208840B86004F800
:10064000345F012060700020C9E790F8351002295E
:1006500003D08021416501207047052180F83510C5
:100660000068016821F0010101600020704700006E
:100670002DE9F84304464FF00009CDF80090634897
:100680004FF41651A56D0068B0FBF1F72E6894F891
:100690005C10082000FA01F131420FD021680A688D
:1006A00052070BD50A6822F004020A6094F85C1025
:1006B0008840A860606D40F00100606594F85C10AF
:1006C0004FF0010808FA01F0304208D0216849696A
:1006D000090604D5A860606D40F00200606594F8DA
:1006E0005C1004208840304208D0216809688907DE
:1006F00004D5A860606D40F00400606594F85C105B
:1007000010208840304218D021680968090714D5A4
:10071000A86020680168490304D50068000308D573
:10072000A16C07E00168C90503D4016821F0080144
:100730000160216C09B12046884794F85C102020A4
:100740008840304231D021680968C9062DD5A8609B
:1007500094F8350005282068016806D0490347D57C
:10076000006800031DD4616C1CE021F016010160DB
:100770002068416921F080014161206C08B9A06CBA
:1007800020B12068016821F00801016094F85C1034
:100790003F208840A86084F8349084F83580216D2B
:1007A0001FE0E16B09B120468847606D00282BD01F
:1007B000606DC00714D0052084F8350020680168FA
:1007C00021F0010101600098401C0090B84203D85C
:1007D00020680068C007F6D184F8349084F835802A
:1007E000E16C002910D001B02046BDE8F043084775
:1007F0000168C905D5D4016821F01001016084F8B1
:10080000349084F83580CCE7BDE8F88348020020B6
:100810002DE9F041044600F097F906465CB1002549
:1008200084F83450022084F835002068016821F0F3
:10083000010101600DE00120BDE8F08100F084F9C4
:10084000801B052805D920206065032084F8350029
:10085000F2E720680068C007F0D1226811682048DC
:100860000140D4E901031843D4E903363343184364
:1008700063691843A3691843E3691843236A18435B
:100880000843616A042903D1D4E90B1319430843CF
:10089000106020684069666A20F0070130460E4308
:1008A000012704280CD1A06A0643E06A40B1204623
:1008B000FFF7A2FD20B14020606584F83570BAE7EB
:1008C000206846612046FFF783FD94F85C203F21B5
:1008D00091408160656584F835700020ACE70000C8
:1008E0003F8010F02DE9F0410446866D90F8340009
:1008F000002501280DD0012084F8340094F83570CB
:100900000020012F07D084F8340002252846BDE8D6
:10091000F0810220FBE7022784F8357060652046ED
:10092000FFF794FD94F85C103F208840B060206889
:10093000016841F016010160206C20B12068016857
:1009400041F0080101602068016841F00101016087
:10095000DCE7000070B5044600F0F6F80546601CC0
:1009600002D004480078044400F0EEF8401BA04296
:10097000FAD370BD3C0200202DE9F84F00224FF061
:10098000010803254FF00F0E0B6808FA02F423400C
:10099000A3426ED14E68012E05D0022E03D0112E37
:1009A00001D0122E12D186684FEA420C05FA0CF7DC
:1009B000BE43CF6807FA0CF7374387604668A64303
:1009C0000C79C4F30014944034434460C668570063
:1009D00005FA07FC8C6826EA0C06BC403443C46068
:1009E0004C68022C01D0122C13D1D40800EB8404E3
:1009F000A346D4F8209054074FEAD46A0EFA0AF6B8
:100A000029EA06090E6906FA0AF646EA0906CBF84B
:100A1000206006680C7926EA0C0604F00304BC404A
:100A2000344304604C68E40065D5364C266846F4CF
:100A300080462660246822F0030604F48044009473
:100A4000314C3444A446D4F808489607370F0EFAC0
:100A500007F6B4432D4EB04201D1002624E02C4EBF
:100A6000B04201D101261FE02A4EB04202D1022637
:100A70001AE040E0284EB04201D1032614E0274E90
:100A8000B04201D104260FE0254EB04201D1052627
:100A90000AE0244EB04201D1062605E0224EB042C3
:100AA00001D1072600E00826BE402643CCF808689E
:100AB0001E4E34684F689C43FF0300D51C433460CE
:100AC0001A4C241D26684F689E43BF0300D51E4361
:100AD0002660164E083634684F689C43FF0200D5E6
:100AE0001C433460114E0C3634684F689C43BF027F
:100AF00000D51C433460521C102AFFF445AFBDE8FA
:100B0000F88F0000443802400030014000000240ED
:100B10000004024000080240000C024000100240A5
:100B20000014024000180240001C0240003C01403A
:100B3000426931EA020200D10904816170470AB1B9
:100B4000816170470904FBE7014880687047000035
:100B50003C0200200248816802781144816070479D
:100B60003C0200200B4810B5016841F4007101609F
:100B7000016841F480610160016841F480710160A5
:100B8000032000F06FF8002000F006F800F024F8D1
:100B9000002010BD003C024070B50D4D04464FF4DE
:100BA0007A712878B1FBF0F00A490968B1FBF0F0DE
:100BB00000F004FB48B9102C07D200222146501E39
:100BC00000F030F800206C6070BD012070BD0000A6
:100BD0003C020020480200200A4808B5016841F4A0
:100BE00080410160006800F4804000900548001FCB
:100BF000016841F080510160006800F08050009071
:100C000008BD000044380240002809DB00F01F0244
:100C1000012191404009800000F1E020C0F800115E
:100C200070470000F0B40E4B1B680C46C3F3022360
:100C3000C3F10705042D00D90425191D072901D288
:100C4000002300E0DB1E012606FA05F1491E2140C3
:100C500099409E40761E16403143F0BC01F05AB9CF
:100C60000CED00E0064900F0070208684FF6FF03AC
:100C7000184040EA0220034A104308607047000011
:100C80000CED00E00000FA052DE9F0470E460500E6
:100C900065D0DFF81481D8F80000F7B200F00F003B
:100CA000B04207D288F80070D8F8000000F00F00BA
:100CB000B04254D128683D4C810712D5400703D576
:100CC000206840F4E05020602878000703D52068B1
:100CD00040F4604020602068A96820F0F0000843DC
:100CE00020602878C0072DD030496868083901286D
:100CF00012D0022813D0032811D0096889070029CF
:100D00002DDA216821F0030101432160FFF71CFF68
:100D1000814641F2883A0EE009688903EFE70968E5
:100D20008901ECE7FFF710FFA0EB0901514502D95B
:100D30000320BDE8F0872068696800F00C00B0EB84
:100D4000810FEFD1D8F80010404601F00F01B142F9
:100D500007D90770006800F00F00B04201D00120F1
:100D6000E7E72878400705D52068E96820F4E050D7
:100D7000084320602878000706D52068296920F4F8
:100D8000604040EAC100206000F038F82168084A5D
:100D9000C1F30311515CC840064908600648006869
:100DA000FFF7FAFE0020C4E7003C0240083802408A
:100DB000E8230008480200204002002004480549BA
:100DC00000680968044AC1F38221515CC840704739
:100DD0004802002008380240F8230008044805496A
:100DE00000680968044AC1F34231515CC840704749
:100DF0004802002008380240F8230008154810B5C2
:100E0000006810F00C02144813D01449042A0FD0C3
:100E1000082A0ED10F4C241F2268236802F03F02DB
:100E20005B0207D52068C0F38810A0FB010106E033
:100E3000084610BD2168C1F38811A1FB0001002301
:100E4000FFF7BEF92168C1F30141491C4900B0FB1D
:100E5000F1F010BD083802400024F40040787D0114
:100E60002DE9F84F040076D02078DFF838A3CE4D76
:100E7000C00749D0DAF800105046C1F381010129BA
:100E800008D00068C0F3810002280AD1281D00683C
:100E9000400206D52868800336D560680028E2D075
:100EA00032E06068B0F5803F10D0B0F5A02F286820
:100EB00010D020F480302860286820F4802028603A
:100EC0006068A0B1FFF740FE06460CE0286840F4D9
:100ED0008030F4E740F480202860F7E7FFF734FE25
:100EE000801B642873D828688003F7D50CE0FFF7CF
:100EF0002BFE064605E000BFFFF726FE801B642898
:100F0000F0D828688003F7D42078DFF8A082800723
:100F10004FF000093ED5DAF80010504611F00C0FE2
:100F200009D00068C0F3810002280BD19D48001F42
:100F30000068400206D42868800715D5E0680128BB
:100F400009D111E0E068B8B10120C8F80000FFF74E
:100F5000FBFD064605E020E1FFF7F6FD801B0228B9
:100F6000C0D828688007F7D52868216920F0F800E4
:100F700040EAC10028600DE0C8F80090FFF7E4FDEA
:100F8000064604E0FFF7E0FD801B02281FD8286812
:100F90008007F7D42078000722D5824E8448616903
:100FA0006C3671B101210160FFF7CEFD074604E008
:100FB000FFF7CAFDC01B022809D830688007F7D5A3
:100FC0000EE0C0F80090FFF7BFFD074605E082E0A5
:100FD000FFF7BAFDC01B02287DD830688007F7D420
:100FE0002078400768D5DFF8BCB100270BF1380B3B
:100FF000DBF80000C0000BD4DBF8001041F080519A
:10100000CBF80010DBF80000012700F080500090C2
:10101000684E3068C00510D4306840F4807030608D
:10102000FFF792FD009005E0FFF78EFD0099401A52
:10103000022850D83068C005F6D55A4EA0686836E8
:1010400001280FD00528306810D020F00100306052
:10105000306820F004003060A068B8B1FFF774FD7C
:1010600000900FE0306840F00100F4E740F0040029
:101070003060F7E7FFF768FD0099411A41F28830C8
:10108000814266D830688007F4D50EE0FFF75CFD3A
:10109000009007E0FFF758FD0099411A41F28830AF
:1010A000814256D830688007F4D42FB1DBF80010A5
:1010B00021F08051CBF80010A069D0B3DAF80020FD
:1010C0005146C2F38102022A4AD00228484607D07C
:1010D000C8F8600000E03CE0FFF736FD04463BE066
:1010E0004746C8F86000FFF72FFD064605E000BF41
:1010F000FFF72AFD801B02282BD828688001F7D42F
:10110000D4E907010843A16A2B4A490802EB0141CF
:10111000626A41EA8211084394F82C1040EA0161A6
:101120002048001F016001203866FFF70DFD0446CE
:1011300005E034E0FFF708FD001B022809D8286805
:101140008001F7D52BE000BFFFF7FEFC001B022853
:1011500002D90320BDE8F88F28688001F4D41EE08E
:101160000128F7D00868E26900F48001914214D1A7
:10117000226A00F03F0191420FD147F6C071626AC6
:101180000140914209D1A26A00F44031914204D158
:10119000E16A00F07060884201D00120DAE70020A7
:1011A000D8E70000083802400038024000004742FB
:1011B000800E4742007000400000FFFF10B5401E47
:1011C000B0F1807F01D3012010BD4FF0E0246061B9
:1011D0000F21601700F09EFE0020A0610720206113
:1011E000002010BD10B504460068416994F839200C
:1011F000C1F3C011212A0BD151B1416921F0800105
:101200004161206B08B1FFF7D9F9204600F0EAFCF4
:101210002068416994F83A20C1F38011222A0BD149
:1012200051B1416921F040014161606B08B1FFF7A4
:10123000C5F9204600F0C8FC002010BD7047000032
:1012400070B5026804461068D168536910F00F0F3A
:1012500052D003F0010501F490762E435FD0C2070F
:1012600005D0CA0503D5E26B42F00102E2634207F2
:1012700005D5DA0703D0E26B42F00202E26382078F
:1012800005D5DA0703D0E26B42F00402E2630207FD
:1012900007D501F020022A4303D0E26B42F0080296
:1012A000E263E26B002A33D0800604D5880602D5BB
:1012B000204600F0A0FC20684069E16BC0F380107C
:1012C000090700D428B3204600F07EFC206841695D
:1012D00049061AD5416921F040014161606BA0B116
:1012E0001B490165606BFFF7B0F9002810D0606BF7
:1012F000016DBDE870400847830610D58B060ED5FA
:101300002046BDE8704000F076BC2046FFF796FF0F
:1013100070BD2046FFF792FF0020E06370BD03061A
:1013200006D50B0604D52046BDE8704000F042BD4E
:101330004006F3D54806F1D5D168204621F040019A
:10134000D160202184F8391000F019FA70BD000036
:10135000291B000870B5040004D094F8390000255A
:1013600010B106E0012070BD84F83850204600F02E
:1013700023F8242084F839002068C16821F4005142
:10138000C160204600F082FC2068016921F4904190
:1013900001612068416921F02A0141612068C1682A
:1013A00041F40051C160E563202084F8390084F8DD
:1013B0003A00002070BD00002DE9F04F87B00446D0
:1013C00014216846FEF746FFDFF87C810221D4F83D
:1013D00000C05E48012203230727DFF874B100250F
:1013E0008E064FF0400A4FF48069C44551D1DFF8B2
:1013F0005CC10CF1140CDCF8008048F01008CCF84B
:101400000080DCF800C00CF0100CCDF814C0D0F84F
:1014100000C04CF0010CC0F800C0006800F00100F2
:10142000059058028DE88F0069465846FFF7A4FAE8
:10143000494F4848C8463860C7E90165C7E90359BC
:101440007D61BD61FD613D6238467D62FFF7E0F977
:1014500008B1FFF710F86763BC633F4F3D48603742
:101460007830C7E903587D61BD61FD613D627D62F1
:1014700087E841043846FFF7CBF908B1FEF7FBFFD8
:101480002763002211462520BC63FFF7CBFB2520F4
:1014900054E0DFF8C880C44552D1DFF8B0C00CF189
:1014A000100CDCF8008048F40038CCF80080DCF840
:1014B00000C00CF4003CCDF814C0D0F800C04CF0D3
:1014C000010CC0F800C0006800F0010005900C207D
:1014D0008DE88F0069465846FFF74EFA1E4F2048A8
:1014E000C037C8463860C7E90165C7E903597D615F
:1014F000BD61FD613D6238467D62FFF789F908B143
:10150000FEF7B9FF6763BC63164F1548C7E9035878
:101510007D61BD61FD613D6218307D6287E84104F7
:101520003846FFF775F908B1FEF7A5FF27630022DB
:1015300011462620BC63FFF775FB2620FFF764FBEE
:1015400007B0BDE8F08F00000010014030380240C5
:101550000000024040640240780400200044004043
:1015600088600240980500202DE9F843044690F871
:101570003A00994616460D46202852D1BDB1B6B163
:1015800094F8380001284CD0012084F83800002756
:10159000E763222084F83A002C34FFF7D5FA24F8C8
:1015A000026B804624F80A6B04F8387931E0012098
:1015B000BDE8F883E08D401EE085A0684346B0F5A5
:1015C000805F4FF000024FF020012046CDF80090E0
:1015D00004D000F020FC98B10320E9E700F01BFCE8
:1015E0000028F9D1206900282068406803D0C1B2E2
:1015F00025F8011B0DE0C0F3080125F8021B08E0E7
:10160000206900282068406801D000F07F0005F8BC
:10161000010BE08D0028CDD1202084F83A00002075
:10162000C6E70220C4E70000F8B5044690F83A0087
:1016300020283CD1C1B3BAB394F83800012836D081
:10164000012084F83800A162A2850025E5632220EC
:1016500084F83A00636B1748D863636B16481864C4
:10166000636B1648D864606B134605650846666B65
:10167000216802463046091DFFF734F920680168E9
:101680004168009184F83850C16841F48071C160AC
:101690002068416941F0010141612068416941F0E0
:1016A000400141610020F8BDFFE70120FBE7022077
:1016B000F9E70000831B0008BF1B0008391B000866
:1016C000704770472DE9F843044690F839001F46EB
:1016D00016460D46202850D1B5B1AEB194F8380069
:1016E00001284AD0012084F838004FF00008C4F8DF
:1016F0003C80212084F83900FFF726FAA684814631
:10170000E68484F8388026E00120BDE8F883E08C88
:10171000401EE084A0684B46B0F5805F4FF00002A9
:101720004FF080012046009703D000F074FBE8B929
:101730000DE000F070FBC8B928882168C0F30800EC
:101740004860206908B16D1C05E0AD1C03E021680C
:1017500015F8010B4860E08C0028D8D14B460022D8
:1017600040212046009700F056FB08B10320CCE74B
:10177000202084F839000020C7E70220C5E7704721
:10178000FEE770B5054601240020034610608B4239
:1017900001DC042B02DD4FF0FF3070BDEE5C06F083
:1017A0007F0606FB04005E1C1660EB5CE4011B0672
:1017B000F3D53346EBE7000038B50446C068009027
:1017C00000251021684600F0EFFD6068FEF75FFD20
:1017D00000F10C01684600F0A5F80421684600F00D
:1017E000D4FD042216A1684600F0E4FD04216846F9
:1017F00000F0DAFD0221684600F0D6FDA18A6846B5
:1018000000F0C3FD6068FEF742FD0146684600F047
:10181000BCFD6068FEF73BFD02466846616800F06B
:10182000C9FDE16800986B1E401A82B260620648EA
:10183000FFF748FF6562FFF787F9A061002038BD18
:101840004D515454000000003804002010B50446E7
:10185000FFF77AF9A28AA16902EB4203C3EBC21235
:1018600001EBC201884204D92046BDE8104000F0D7
:1018700001B810BD38B50446C06800900025C021ED
:10188000684600F091FD0021684600F04BF8E168E1
:1018900000986B1E401A82B260620448FFF712FF84
:1018A0006562FFF751F9A061002038BD38040020BF
:1018B0002DE9F8430446C0680F4600909846154647
:1018C00000268221684600F06FFD691D684600F021
:1018D00029F8124801684A1C0260684600F055FD6C
:1018E0002946684600F051FD2A463946684600F010
:1018F00061FD4146684600F057FDE1680098731E9F
:10190000401A82B260620648FFF7DCFE6662FFF7AB
:101910001BF9A0610020BDE8F88300003802002018
:101920003804002010B50022CB1701EB536424F0DB
:101930007F03C91ACBB2E111002901DD43F0800316
:101940000468A35402F10102EEDC01681144016055
:1019500010BD0000194808B5016841F4001101608C
:10196000016801F400110091016841F480010160F7
:101970000068002200F48000009011461020FFF75C
:1019800051F91020FFF740F9002211461120FFF70E
:1019900049F91120FFF738F9002211463A20FFF7E4
:1019A00041F93A20FFF730F9002211464620FFF7AF
:1019B00039F9BDE808404620FFF726B93038024023
:1019C00070B586B014216846FEF744FC1248002426
:1019D000016841F020010160016801F020010591DA
:1019E000016841F00101016000680C4E00F0010047
:1019F0004FF400750590224629463046FFF79FF8C0
:101A000001200095CDE90104694630460394FEF7B4
:101A1000B3FF06B070BD0000303802400014024031
:101A20000C4810B50A4901604FF4E13141600021D2
:101A300081600C22C160C0E904128161C161FFF7BD
:101A400089FC002803D0BDE81040FEF714BD10BD8E
:101A500000100140F80300200C4810B50A4901604D
:101A60004FF4E1314160002181600C22C160C0E986
:101A700004128161C161FFF76DFC002803D0BDE84D
:101A80001040FEF7F8BC10BD0044004038040020B0
:101A9000FEE7704770477047FFF75CB810B592B02B
:101AA00030216846FEF7D6FB14210CA8FEF7D2FBC6
:101AB00014480024016841F080510160006800F082
:101AC000805011901048016841F480410160006825
:101AD000069400F4804011900220009001200390B1
:101AE000102004906846FFF7BBF90F20CDE90C04E5
:101AF0000E940F9400210CA81094FFF7C5F812B0B3
:101B000010BD0000403802400070004005480168E8
:101B100041F47001016003494FF0006080390860B2
:101B20007047000088ED00E010B5806B0021C18592
:101B3000C184FFF783FB10BD70B5846B20684069DA
:101B400094F83910C0F3C0100025212904D118B130
:101B5000E584204600F046F82068406994F83A1081
:101B6000C0F38010222904D118B1E585204600F089
:101B70002BF8E06B40F01000E0632046FFF75EFBBF
:101B800070BD10B50146806B09680968C90513D49A
:101B90000021C1850168CA6822F48072CA600168A8
:101BA0004A6922F001024A6101684A6922F0400252
:101BB0004A61202180F83A10FFF782FD10BD10B570
:101BC000806BFFF77EFD10BD0168CA6822F4907239
:101BD000CA6001684A6922F001024A61202180F846
:101BE0003A1070470168CA6822F0C002CA6020211A
:101BF00080F83910704710B590F83A10222901D0BA
:101C0000022010BD8168B1F5805F11D00169002903
:101C100001681FD0496801F07F03816A4A1C826213
:101C20000B70C18D491E0904090CC18518D02BE029
:101C30000269816A002A0268526805D0D2B20A801D
:101C4000816A491C8162ECE7C2F308020A80816A5A
:101C5000891CF7E74A68816A4B1C83620A70E0E7D7
:101C60000168CA6822F02002CA600168CA6822F4CA
:101C70008072CA6001684A6922F001024A6120212B
:101C800080F83A10FFF71CFD002010BD2DE9F0414F
:101C9000044600680169E26821F440511143016182
:101CA0002169A068E269084361691143084321681A
:101CB000CA6849F20C639A430243CA6020684169CA
:101CC000A26921F4407111434161E069192764253B
:101CD0003226B0F5004F354A354920684FF00008EC
:101CE00006D0884201D0904236D1FFF777F835E030
:101CF000884201D0904202D1FFF770F801E0FFF76F
:101D00005DF861684A18A0FB070148EB0803FEF77D
:101D100057FA0146B0FBF5F00201B1FBF5F06FF0A8
:101D20001803584301EB800006EBC000B0FBF5F050
:101D300000F0F80002EB4002B1FBF5F0584301EB74
:101D4000800006EBC000B0FBF5F000F00700216852
:101D500010448860BDE8F081FFF730F861688B0FB0
:101D60008A00A0FB0701FEF72BFA0146B0FBF5F055
:101D70006FF01802504301EB800006EB0010B0FB3F
:101D8000F5F000F0F002B1FBF5F002EB0012B1FB50
:101D9000F5F06FF01803584301EB800006EB0010DC
:101DA000B0FBF5F000F00F00D1E700000014014097
:101DB0000010014090F83910212901D0022070470D
:101DC0008168B1F5805F016A0BD04A1C026202682B
:101DD00009785160C18C491E0904090CC1840ED0D8
:101DE00017E009880268C1F3080151600169002900
:101DF000016A02D0491C0162ECE7891CFBE701681B
:101E0000CA6822F08002CA600068C16841F04001DF
:101E1000C160002070472DE9F041984617460E46F4
:101E20000446069D1DE0681C1BD02DB1FEF78CFEFC
:101E3000A0EB0800A84214D92068C16821F4D07131
:101E4000C1602068416921F001014161202084F8CE
:101E5000390084F83A00002084F838000320BDE8F7
:101E6000F0812068006836EA000004D00020B84203
:101E7000D9D00020F3E70120F9E700000148FFF77F
:101E8000DFB90000F803002010B50448FFF7D8F9C7
:101E9000BDE81040014800F00FB8000038040020F1
:101EA00003480068406803494042087070470000DA
:101EB0003805002000000020094A016881B09142E5
:101EC0000BD1084909680A68D243D20605D40A68CA
:101ED0004968009101B0FFF7E3BF01B0704700000F
:101EE0000044004038040020FEE700000FB4084B17
:101EF00010B504A902AA039800F02CF8044602A920
:101F0000002000F0D1F8204610BC5DF814FB000062
:101F1000A92000080907090E002804DB00F1E020D1
:101F200080F80014704700F00F0000F1E02080F806
:101F3000141D704702E008C8121F08C1002AFAD118
:101F400070477047002001E001C1121F002AFBD139
:101F5000704700002DE9FF4F89B09B4604460025DD
:101F600006E025280BD05A460B999047641C6D1C3F
:101F700020780028F5D10DB02846BDE8F08F002765
:101F8000B8460122474900E0074314F8013F203BCF
:101F900002FA03F00842F7D120782E2819D114F85C
:101FA000010F47F004072A280ED06FF02F02207887
:101FB000A0F1300109290CD808EB880102EB41019E
:101FC00000EB0108641CF2E70A98641C50F8048BCB
:101FD0000A9020780028CED0642808D0692806D03E
:101FE00075281ED05A460B9990476D1C58E00A99E7
:101FF0004FF00A0901C90A91002802DA40422D2156
:1020000002E0390504D52B218DF82010012103E0D1
:10201000F90704D02021F7E78A4608AE0DE0002139
:10202000FAE70A994FF00A0901C90A91F7E7494608
:10203000FEF742F9303106F8011D0028F7D1ADEB6B
:10204000060000F12009780701D44FF00108C845C7
:1020500002DDA8EB090000E000208046002706E032
:1020600008A85A46C05D0B9990476D1C7F1C5745C8
:10207000F6DB04E030205A460B9990476D1CB8F10E
:102080000001A8F10108F5DC05E016F8010B5A463D
:102090000B9990476D1CB9F10001A9F10109F4DC1D
:1020A000641C65E7092801000A68531C0B60107066
:1020B000704700001FB535A30FCB8DE80F00FEF76A
:1020C00051FDFFF7EBFCFFF77BFCFFF743FCFFF74D
:1020D000A7FCFFF7C1FC31480068C16841F010015E
:1020E000C160FEF735FA4FF0FF3300284AD01422C2
:1020F0002BA13148FFF7E6FA4FF480752A462F49A5
:102100002648FFF791FA2E48A0F18001C0F804D0CC
:10211000C1602A49C56181600A218182FFF74CFBB9
:102120006420FEF717FC00230B2226A12448FFF7AA
:10213000BFFBFEF709FDDFF89890264E04464FF4EA
:10214000007800271E48FFF781FBFEF7FDFC04F531
:102150007A71884206D941464846FEF7E9FCFEF707
:10216000F3FC044630780028ECD00C48FFF73AF82E
:10217000134800F03BF837702A4610490748FFF72C
:1021800053FADFE7112214A1B3E700007A68616F08
:102190006A69616E636875616E0000003804002032
:1021A000696E6974206573703832363620657272D4
:1021B0006F720D0A00000000F8030020F8020020F2
:1021C000CC0200202F7A68616F6A632F73756200FA
:1021D0000014024000000020696E6974206573706D
:1021E00038323636206F6B0D0A00000070B58CB0A7
:1021F0000024C169064609948068009010F8012BFC
:10220000009062F3070409AAFFF7BBFA050006D4A1
:10221000274801780998091A491EA94203DA4FF0A4
:10222000FF300CB070BD00990844009020090928C7
:102230003AD006DC022825D0032812D0042804D185
:102240002EE00D281AD00E2826D0220919A101A8A7
:10225000FFF74CFE01A8FEF71AF882B2642301A929
:1022600015E0684600F088F8291A891E009C8BB298
:10227000221881B2204600F04BF80BE064230A22BA
:1022800012A104E0012064233070092212A1154834
:10229000FFF718FA0020C4E764230C2212A1F6E726
:1022A0006423082214A1F2E76423082215A1EEE7B3
:1022B000000000206D717474207265632065727275
:1022C0006F72207479706525640D0A0050494E477D
:1022D000524553500D0A0000434F4E4E41434B0DA3
:1022E0000A000000F8030020444953434F4E4E4576
:1022F00043540D0A0000000050554241434B0D0A63
:102300000000000053554241434B0D0A00000000FD
:102310002DE9F0411F4690460C4605464FF0FF362A
:1023200033460F220EA11248FFF7CCF9334622465E
:1023300029460F48FFF7C6F9334602220DA10C4883
:10234000FFF7C0F933463A4641460948FFF7BAF964
:102350003346BDE8F041022206A10548FFF7B2B9B5
:1023600072656376207075626C6973683A0D0A0055
:10237000F80300200D0A000001684A7811F8023BBA
:10238000016002EB03221046704710B5CA170468BB
:1023900001EB12631A0A22700268521C026011706B
:1023A0000168491C016010BD026811700168491C78
:1023B0000160704770B5044615460068FDF731FFAF
:1023C00020682844206070BD3C2400080C240008CC
:1023D00024240008182400083024000800240008E1
:1023E0000006101600061016000000000000000095
:1023F00001020304060708090000000001020304AB
:102400007463705F73656E64000000007374615FD5
:102410006D6F6465000000007472616E735F6D6FB4
:10242000646500006A6F696E5F7769666900000025
:102430007463705F73746172740000007465737408
:102440000000000064240008000000204C0200008E
:1024500048030008142500084C020020AC070000C7
:10246000441F000881C574657374053C41540D0A0E
:1024700068097463705F737461725508271841545A
:102480002B43495053544152543D22544350222C23
:10249000223132302E32352E3231332E3134222C4D
:1024A000313838337439508C656E64A039500C342F
:1024B000454E44A8A80B7472616E735F6D6F6465BE
:1024C000500F324D4F44453D315219EC994E495011
:1024D0000A38574F11A80A6A6F696E5F7769666993
:1024E00050081A204A41503D227A68616F2D222CF3
:1024F0002231333433303239353036342263FD7192
:10250000756974500C335141509D71320182101322
:0425100024F40000AF
:040000050800018965
:00000001FF
